:020000040800F2
:1000000048050020C9000008390B0008810A0008D3
:1000100000000000000000000000000000000000E0
:10002000000000000000000000000000830B00083A
:100030000000000000000000810B0008850B000894
:10004000DB00000800000000DB000008DB00000807
:10005000DB000008DB000008DB000008DB00000814
:1000600000000000DB000008DB000008DB000008E7
:10007000DB000008DB000008DB00000800000000D7
:10008000DB000008DB00000800000000DB000008C7
:10009000DB000008DB000008DB000008DB000008D4
:1000A000DB000008DB000008DB000008DB000008C4
:1000B000DB0000080348854600F06CF80048004764
:1000C0009112000848050020044880470448004772
:1000D000FEE7FEE7FEE7FEE7FEE7FEE7D90B0008D6
:1000E000B500000830B50B4601460020202201244F
:1000F00009E00D46D5409D4205D31D469540491B5C
:100100002546954040191546521E002DF1DC30BDA4
:10011000D2B201E00270401C491EFBD2704700229F
:10012000F6E710B513460A4604461946FFF7F0FFF6
:10013000204610BD414601604946416051468160FC
:100140005946C160714601611430F0C069460160D2
:10015000001D01B5C046C04606BC964601C1002040
:10016000704704000D00A06AC046C046616A8D4613
:100170002200280000D10120116888465168894674
:1001800091688A46D1688B4611698E461432F0CA4E
:1001900070470000064C0125064E05E0E36807CCD9
:1001A0002B430C3C98471034B442F7D3FFF786FF3B
:1001B0002C1500084C150008F8B500238DE001242B
:1001C0009C40A44622407DD04C68022C01D0122CC9
:1001D0000CD1DC08A40027183C6A5D07ED0E0F2641
:1001E000AE40B4430E69AE4026433E6205685E00F1
:1001F0000324B4400F79A543BF07BF0FB7402F4377
:1002000007604D68012D05D0022D03D0112D01D0BE
:10021000122D0ED18568CF68A543B7402F43876064
:1002200047686546AF430D79ED06ED0F9D403D43B0
:100230004560C568A5438C68B4402C43C4604C68D5
:10024000E40049D5284CA56901263543A561A46978
:100250009D0834400094254CAD002F19BC689D07C3
:100260002E0F0F25B540AC430925ED06A84201D15C
:1002700000250FE01E4DA84201D101250AE01D4DC9
:10028000A84201D1022505E01B4DA84201D103255A
:1002900000E00525B5402543BD60184C25684E6833
:1002A0009543F60300D51543256065684E68954370
:1002B000B60300D515436560A5684E689543F60200
:1002C00002D500E008E01543A560E5684E68954357
:1002D000B60200D51543E5605B1C0A681446DC4095
:1002E00000D06CE7F8BD00000010024000000140A3
:1002F0000004004800080048000C004800040140C9
:10030000002A01D08161704781627047014800680E
:10031000704700000000002002480168491C01608D
:10032000704700000000002010B506480168102248
:1003300011430160002000F007F800F017F80020DA
:1003400010BD00000020024010B5044600F0BCF8CB
:100350007D21C900FFF7C6FE00F0B2FA0022214657
:10036000501E00F017F8002010BD000008B5084826
:100370008169012211438161816911400091C26943
:1003800001040A43C261C0690840009008BD000032
:100390000010024010B500F0D1FB10BDF8B50546C5
:1003A00044480E460068C007C00FB0420AD2414818
:1003B000016849084900314301600068C007C00F67
:1003C000B0425CD128783C4C800705D56068F021AC
:1003D0008843A968084360602878C0073FD06868F0
:1003E000012813D02168022813D08907002946DA92
:1003F00061688908890001436160FFF787FF6968C8
:10040000074601290DD0022917D024E0216889036D
:10041000ECE78901EAE7FFF779FFC11B2748814232
:1004200017D860680007800F0128F4D117E0FFF7A4
:100430006DFFC11B214881420BD860680007800F07
:100440000228F4D10BE0FFF761FFC11B1B4881427A
:1004500001D90320F8BD60680007800FF3D115486B
:100460000168C907C90FB1420BD9016849084900A1
:10047000314301600068C007C00FB04201D00120C5
:10048000F8BD2878400706D560680721090288432F
:10049000E9680843606000F02DF86168084A0906C1
:1004A000090F515CC840074908600020FFF74CFF66
:1004B0000020F8BD00200240001002408813000018
:1004C000661300080400002001480068704700001F
:1004D000040000200448054900684968044A4905A9
:1004E000490F515CC84070470400002000100240D2
:1004F0007613000810B512A30FCB88B06C460FC45A
:1005000013A30FCB0FC416494A680C2013460340AF
:100510001448042B0FD0082B0DD193021B0F6C46EF
:10052000E45CC96A04AB0907090F595CD20304D51E
:10053000FFF7D8FD604308B010BD0B486043FAE7F1
:1005400002030405060708090A0B0C0D0E0F101014
:100550000102030405060708090A0B0C0D0E0F1013
:100560000010024000127A0000093D00FEB504466A
:100570000078D04DC00747D068680007800F012879
:1005800007D068680007800F022809D16868C00397
:1005900006D52868800337D5606800287ED033E010
:1005A000012062680004012A11D08100002A01D0D4
:1005B000052A10D02A6882432A6028688843286068
:1005C0006068002814D0FFF7A1FE06460CE02968F9
:1005D00001432960F4E72A680A432A60F7E7FFF736
:1005E00095FE801B64286FD828688003F7D50BE040
:1005F000FFF78CFE064604E0FFF788FE801B6428A8
:10060000F1D828688003F7D42078012680070028D5
:100610003BDA68680007800F07D068680007800F22
:10062000022809D16868C00306D42868800715D558
:10063000E068012832D111E0E0680028286815D070
:1006400030432860FFF762FE074604E0FFF75EFED6
:10065000C01B0228C7D828688007F7D52868F8216A
:1006600088432169C900084328600EE04008400023
:100670002860FFF74BFE074604E0FFF747FEC01B6C
:100680000228B0D828688007F7D42078000724D53E
:10069000E0690028686A10D0304300E008E1686231
:1006A000FFF734FE074604E0FFF730FEC01B0228C8
:1006B00099D8686A8007F7D50FE040084000686263
:1006C000FFF724FE074605E09DE0FFF71FFEC01B75
:1006D000022888D8686A8007F7D420780427400762
:1006E000002860DA00200190E869C00008D4E969B8
:1006F000B8060143E961E9690140012000910190D8
:100700006D480168C90511D4016882151143016063
:10071000FFF7FCFD009005E0FFF7F8FD0099401A97
:10072000642870D864480068C005F5D5A068012821
:100730000AD0002801D0052810D0286A40084000BF
:100740002862286AB84301E0286A30432862A0681A
:10075000002812D0FFF7DAFD00900AE0286A38433B
:100760002862F1E7FFF7D2FD0099411A5348814210
:1007700049D8286A8007F5D50DE0FFF7C7FD00903E
:1007800006E0FFF7C3FD0099411A4C4881423AD870
:10079000286A8007F5D40198002804D0E96901206F
:1007A00000078143E9612078C00635D560690128DA
:1007B0000CD0401D686B23D038436863686B4008D9
:1007C00040006863FFF7A2FD064622E0686B3843ED
:1007D0006863686B30436863FFF798FD064604E082
:1007E000FFF794FD801B02285BD8686B8007F7D564
:1007F000686BF8218843A169C900084368630BE06E
:10080000B8436863F4E74CE0FFF780FD801B0228E3
:1008100047D8686B8007F7D4206A002846D06968FB
:100820000907890F022943D00126360602282868C5
:1008300005D0B0432860FFF769FD044633E0B043BC
:100840002860FFF763FD074604E0FFF75FFDC01B6C
:10085000022826D828688001F7D4E86AE16A0009EE
:1008600000010843E862616AA06A084369683D22A2
:100870001204914308436860286830432860FFF7FA
:1008800045FD044604E0FFF741FD001B022808D89F
:1008900028688001F7D509E0FFF738FD001B022822
:1008A00001D90320FEBD28688001F5D40020FEBDDB
:1008B0000120FEBD001002400070004088130000BF
:1008C000094910B5401E884201D9012010BD074CCE
:1008D00060610321081F00F031F90020A0610720AA
:1008E0002061002010BD0000FFFFFF0000E000E0DD
:1008F00070B5040005D025466035687A002802D01E
:1009000006E0012070BD00202872204600F026F885
:100910002420687220680168490849000160204667
:1009200000F0F6F90128EDD0606A002802D02046D8
:1009300000F080F9206841680122D20291434160B1
:100940002068816808229143816020680168012243
:1009500011430160204600F0D2F970BD10B586B099
:10096000044614216846FFF7DAFB114920688842E3
:100970001CD11048C269012149040A43C261C269FD
:100980000A40059242690A43426140690840059065
:100990000C20009002200190002002900390012082
:1009A000049009206946C006FFF706FC06B010BD9A
:1009B0000044004000100240FFB506460446603681
:1009C000707A83B00D46202858D1002D0CD00598A0
:1009D000002809D00120A1680003814207D12069C5
:1009E000002804D1E80702D0012007B0F0BD307A1A
:1009F000012843D0012030720020E066212070726F
:100A0000FFF784FC01902746403705983882059807
:100A1000788218E0788A401E78820698009000223A
:100A200080212046019B00F00BFA002818D10120FC
:100A3000A1680003814202D12069002812D02168F8
:100A4000287808856D1C788A0028E3D106980090E4
:100A5000002240212046019B00F0F2F9002808D036
:100A60000320C2E728882168C005C00D0885AD1C99
:100A7000E9E72020707200203072B6E70220B4E768
:100A8000FEE7000030B587B014216846FFF747FB4A
:100A90001A4842690121C9040A43426142690A4075
:100AA00005924269C9000A43426142690A400592BF
:100AB000426949110A434261406909250840ED062F
:100AC0000590002220212846FFF71AFC0120400350
:100AD00000900B4800240190694602940948FFF7F2
:100AE0006BFB202000900120019002946946039442
:100AF0002846FFF761FB07B030BD00000010024040
:100B0000000021100008004810B50A48084901609B
:100B10004B21C901416000218160C1600161816197
:100B2000C1610C22016242614162FFF7E1FE10BD2A
:100B3000004400400C000020704700008307FF22A3
:100B4000DB0E9A408907090E994000280BDA00074E
:100B5000000F0838830808489B001818C36993439E
:100B60000B43C3617047830804489B001B18186837
:100B7000904308431860704700ED00E000E400E097
:100B80007047704710B5FFF7C7FB10BD30B591B087
:100B900030216846FFF7C3FA00240D94012003902A
:100BA0000E940225102009940490009505200F94BE
:100BB000C0040A900C9408950B946846FFF7D6FC85
:100BC00007200C900E9401210D950F940CA8FFF7AF
:100BD000E5FB11B030BD000013480168012211434C
:100BE00001604168114A114041600168104A11409A
:100BF00001600168012292049143016041683F2233
:100C0000120491434160C16A09090901C162016B83
:100C1000FF22143291430163416B4908490041634B
:100C20000021816070470000001002400CB8FF08EE
:100C3000FFFFF6FE10B5818CC90707D001684A682E
:100C400001235B049A43836A1A434A60818C8907B3
:100C500007D501684A6801231B049A43C36A1A43F3
:100C60004A60818C490707D501684A6801239B04C3
:100C70009A43036B1A434A60818C090707D50168C0
:100C80004A680123DB039A43436B1A434A60818C11
:100C9000C90607D50268916801231B039943836B3A
:100CA00019439160818C890607D501688A68012300
:100CB0005B039A43C36B1A438A60818C490612D541
:100CC00003685A6801210905046C8A4322435A606B
:100CD000026C8A4207D10268516803235B0599437D
:100CE000436C19435160818C090607D501684A6835
:100CF0000123DB04806C9A4302434A6010BD00214B
:100D0000C1662022603042728272017208467047CA
:100D1000F8B504462369A268E5691A43636910209F
:100D20002B43002125681A432B680E463E4F3B405B
:100D300013432B6023685A6803252D03AA43E568F3
:100D40002A435A60236AA26925681A43AB680B27B5
:100D50003F02BB431343AB60344A2568954210D130
:100D6000334A126B9207920F0ED0012A05D0022A45
:100D700005D0032A09D1022007E0042005E008205D
:100D800003E02C4A954200D100200122E369D203FE
:100D9000934224D100280CD002280DD0042813D06F
:100DA000082817D001260A0912010807400F10432E
:100DB0002FE0FFF78FFB09E061681F4A48088018A1
:100DC000FFF790F981B2EEE7FFF794FB616840000E
:100DD0004A08F4E76168012248081204EFE7002896
:100DE00008D0022809D004280BD0082814D00126E6
:100DF0003046F8BDFFF76EFB05E061680F4A480812
:100E00000CE0FFF777FB61684A088018FFF76AF982
:100E100080B22168C860EBE7616848088018FFF776
:100E200061F980B2E860E3E7F369FFFF0038014051
:100E300000100240004400400024F40000127A0038
:100E4000FFB581B017460E4604460A9D1DE0681C9A
:100E50001BD0002D05D0FFF759FA0499401AA8427B
:100E600013D920680168FF22A132914301602068F4
:100E70008168490849008160202060346072A07256
:100E800000202072032005B0F0BD2068C169304603
:100E9000884304D00020B842D9D00020F3E70120D5
:100EA000F9E7000070B505001CD00F4800F0E8F825
:100EB0000E4CA068002812D00D4800F0E1F8A068A0
:100EC00000F0DEF8E068002806D009480A3000F09B
:100ED000D7F8E06800F0D4F8034800F0D1F82846CD
:100EE00000F0CEF870BD00008313000880000020E1
:100EF000D9140008FFB5154C064681B0206A0A9F38
:100F00000D46002820D1606A00281DD1AE421BD0BA
:100F1000184600F073F90E4800F0B2F83946304632
:100F200000F0F4F80A481C3800F0AAF839462846C0
:100F300000F0ECF80398FFF7B5FF012001462062AE
:100F400020462830FFF70DF905B0F0BD80000020E5
:100F5000B61300080649086000204860086148612F
:100F60008861C861086248628860C8607047000094
:100F70008000002010B50F4C606A002803D0E069A3
:100F8000401CE06105E0206A00280AD0A069401CEE
:100F9000A06100202062606207490A2000F0B8F9D1
:100FA00010BD2169206800F00DF9044800F068F8D0
:100FB000EFE70000800000200800002086130008F2
:100FC00070B50F4B04461A6159605869401C58614E
:100FD00000209860D860184628300546FFF7AAF828
:100FE000002802D100F098F9A0472846FFF7A2F8A0
:100FF000002801D100F093F9FFF7BCFF70BD00009D
:101000008000002010B51A490A2000F081F9194823
:1010100000F036F816490A2000F07AF9164C60699B
:1010200000F066F81348FE3800F02AF8A06900F0D6
:101030005FF81048183000F023F8E06900F058F825
:101040000C48233000F01CF809490A2000F060F930
:10105000A069002808D0094800F012F804490A20C5
:1010600000F056F9A06910BD04480B38F4E7000001
:1010700008000020AC140008800000208B1300083A
:1010800010B5040004D110BD204600F005F8641C22
:1010900020780028F8D110BD10B50446007801462C
:1010A00020395E2901D8114916E00D280ED00F49CC
:1010B0000A2814D05C2000F02BF90C49782000F0AD
:1010C00027F92078022100F041F810BD07495C2083
:1010D00000F01EF90549722000F01AF910BD5C20DD
:1010E00000F016F901496E20F6E700000800002024
:1010F00010B5040004D504492D2000F009F964421C
:10110000204600F03DF810BD0800002070B50546EF
:101110000C46C80603D52846FFF7EAFF70BDA006B7
:1011200003D5284600F02CF870BD0749302000F0A8
:10113000EFF80549782000F0EBF82007C10E2846AB
:1011400000F004F870BD00000800002070B50546EE
:101150000C4608290FD90824641EE4B2A1002846D1
:10116000C8400007000F0549092801DC303000E0C5
:10117000373000F0CDF8002CEED170BD0800002013
:1011800070B50546012401E00A2044432146284663
:10119000FEF7A8FF0928F7D821462846FEF7A2FF48
:1011A0000A21FEF79FFF08463030054900F0B0F8ED
:1011B0000A212046FEF796FF0400EDD170BD000025
:1011C0000800002010B50C46FFF75AFF09493A20E5
:1011D00000F09EF82046FFF78BFF06493A2000F00A
:1011E00097F805484068FFF74BFF02493A2000F0A6
:1011F0008FF810BD0800002080000020014610B5C7
:1012000005480068FFF7DEFF0448FFF739FF04498F
:101210003A2000F07DF810BD800000208B130008FC
:101220000800002010B5024A024900F014F810BD71
:10123000751200080800002002E008C8121F08C14B
:10124000002AFAD170477047002001E001C1121F47
:10125000002AFBD17047F8B516460F460446002514
:1012600003E03946B047641C6D1C20780028F8D193
:101270002846F8BD13B5044B012269460348FFF721
:101280009BFB00981CBD0000FFFF00000C0000202D
:1012900010B5FFF749F8FFF779FCFFF7F3FBFFF70D
:1012A00033FC09A0FFF7BEFF0BA0FFF753FE9A2205
:1012B0000BA11048FFF784FE9B220FA11348FFF7F4
:1012C0007FFEFFF79FFE10BD0A20556E69742074E3
:1012D000657374200A000000546573742E63000067
:1012E000746573745F616C776179735F7061737338
:1012F0000000000021130008746573745F73756D3E
:101300005F66756E6374696F6E00000035130008C8
:1013100010B5FFF7AFFF10BD70474018704770471A
:1013200008B514200A210090122300220846FFF776
:10133000E1FD08BD38B505210846FFF7EEFF01467F
:101340001424172300220A200094FFF7D3FD0C2158
:101350000820FFF7E2FF0146182300221420009422
:10136000FFF7C8FD38BD00000000000000000102CA
:10137000030406070809000000000102030400003E
:101380004F4B002E200050415353004641494C0022
:101390004E554C4C004E6F74200020576173200056
:1013A00049474E4F52450020427974652000205431
:1013B00065737473200020457870656374656420DC
:1013C0000020746F20626520677265617465722009
:1013D0007468616E200020746F206265206C6573F4
:1013E00073207468616E20006F7220657175616C86
:1013F00020746F200020456C656D656E74200020A0
:101400004D656D6F7279204D69736D617463682EDF
:10141000002056616C756573204E6F742057697497
:1014200068696E2044656C7461200020596F7520D6
:1014300041736B6564204D6520546F20436F6D7060
:10144000617265204E6F7468696E672C20576869F9
:1014500063682057617320506F696E746C65737395
:101460002E0020457870656374656420706F696E26
:1014700074657220746F206265204E554C4C0020BC
:1014800041637475616C20706F696E74657220774A
:101490006173204E554C4C00496E76616C69642036
:1014A000466C6F6174205472616974002D2D2D2D6E
:1014B0002D2D2D2D2D2D2D2D2D2D2D2D2D2D2D2D5C
:1014C0002D2D2D00204661696C75726573200020FA
:1014D00049676E6F726564200046756E6374696F4C
:1014E0006E200020417267756D656E7420000000EB
:1014F00000150008091500081B1500081F15000835
:10150000496E66696E697479004E656761746976C3
:101510006520496E66696E697479004E614E0044BB
:10152000657465726D696E61746500004C15000824
:10153000000000200C0000003812000858150008B8
:101540000C0000203C0500004812000800000000CC
:0815500000127A000000000007
:04000005080000B53A
:00000001FF
