:020000040800F2
:100000000020002049020008F5040008F704000859
:1000100000000000000000000000000000000000E0
:10002000000000000000000000000000F9040008CB
:100030000000000000000000FB040008FD040008B0
:1000400099020008000000009902000899020008C7
:100050009902000899020008990200089902000814
:1000600000000000990200089902000899020008A7
:100070009902000899020008990200080000000097
:100080009902000899020008000000009902000887
:1000900099020008990200089902000899020008D4
:1000A00099020008990200089902000899020008C4
:1000B000990200080000000000000000000000009D
:1000C00010B5064C2378002B07D1054B002B02D02E
:1000D000044800E000BF0123237010BD6800002029
:1000E00000000000EC1F0008044B10B5002B03D0EB
:1000F0000349044800E000BF10BDC04600000000F6
:100100006C000020EC1F000802B471464908490049
:10011000095649008E4402BC7047C04602B471467D
:1001200049084900095C49008E4402BC7047C0463A
:10013000002243088B4274D303098B425FD3030A26
:100140008B4244D3030B8B4228D3030C8B420DD339
:10015000FF22090212BA030C8B4202D312120902C7
:1001600065D0030B8B4219D300E0090AC30B8B4205
:1001700001D3CB03C01A5241830B8B4201D38B03B3
:10018000C01A5241430B8B4201D34B03C01A524158
:10019000030B8B4201D30B03C01A5241C30A8B429B
:1001A00001D3CB02C01A5241830A8B4201D38B0286
:1001B000C01A5241430A8B4201D34B02C01A52412A
:1001C000030A8B4201D30B02C01A5241CDD2C3099C
:1001D0008B4201D3CB01C01A524183098B4201D318
:1001E0008B01C01A524143098B4201D34B01C01A03
:1001F000524103098B4201D30B01C01A5241C3087B
:100200008B4201D3CB00C01A524183088B4201D3E9
:100210008B00C01A524143088B4201D34B00C01AD5
:100220005241411A00D20146524110467047FFE741
:1002300001B5002000F006F802BDC0460029F7D045
:1002400076E770477047C0460D4885460D480E4911
:100250000E4A002302E0D458C4500433C4188C4220
:10026000F9D30B4A0B4C002301E013600432A24285
:10027000FBD300F047F900F051FF00F085F8FEE7EE
:10028000002000200000002068000020F42000086A
:10029000680000200C010020FEE770B50E0015007C
:1002A0000C00A31B9D4201DC280070BD00E000BFD4
:1002B00020700134F5E770B50E0015000C00A31B8B
:1002C0009D4201DC280070BD207800F029F801343F
:1002D000F5E700000A4B10B519680200002901D1AA
:1002E000084919606946186882188A4206D900F0E0
:1002F0000FFF0C2303600120404210BD1A60FCE791
:10030000840000200C01002001204042704780231F
:100310009B0100204B607047012070470020704710
:1003200007B5044B0190012201A9034800F08AFEA1
:1003300001980EBDFFFF00009400002070B510264C
:1003400090B03022002104A800F015FF32000021F7
:10035000684600F010FFA023022401259B0304A897
:100360000E930494079508960C9400F03BFA07232B
:10037000009300232900684601940293039300F040
:1003800045FC10B070BD000030B589B000F0FCF83D
:10039000FFF7D4FF1422002103A800F0ECFE802018
:1003A0002A4B000359690024014359615A69FA250F
:1003B000024080200092009A5969C00301435961AC
:1003C00080215A698902024090200192019A5A695B
:1003D000C0050A435A615B6900220B400293202149
:1003E000029B00F0F9F980239B010393184B03A9AA
:1003F00018480493059400F03FF9202390200393BC
:1004000003A91F3BC00504930594069400F034F93A
:100410001148124B8460036096239B0143600C23B8
:10042000C460046143618461C4610462446200F099
:100430009BFDAD000A4C0B48216800F0A5FE236827
:1004400028000133236000F0BDF8F3E700100240FC
:1004500000002110000800489400002000440040E3
:10046000900000202420000801200A4B82B09969E6
:100470000143996180219A69490502400092009ADE
:10048000DA690A43DA61DB690B400193019B02B030
:100490007047C0460010024010B5040088B0142216
:1004A000002103A800F067FE104B22689A421BD17E
:1004B00080220F4B9202D96990201143D961D969EA
:1004C000C0051140019101995969114359615B6956
:1004D00003A91A400292029B0C2303930A3B049344
:1004E000013B079300F0C8F808B010BD004400407D
:1004F000001002407047FEE77047704710B500F0EB
:1005000053F810BD0121114B11481A680A431A60B3
:100510005A6802405A601A680E4802401A601A6807
:100520000D4802401A605A680C4802400F205A6079
:10053000DA6A8243DA621A6B094802401A635A6B1C
:100540008A435A6300229A607047C04600100240F6
:100550000CB8FF08FFFFF6FEFFFFFBFFFFFFC0FF29
:10056000ECFEFFFF10B5040000F0E6FBFA21890065
:10057000FFF7DEFD00F066F8012000222100404276
:1005800000F030F8002010BD1023064A10B51168A5
:1005900000200B431360FFF7E5FFFFF765FF002026
:1005A00010BDC04600200240024A136801331360A8
:1005B0007047C04604010020014B18687047C046D0
:1005C0000401002037B50190FFF7F6FF019C0500FC
:1005D000631C5A1E9341E418FFF7EEFF401BA04234
:1005E000FAD337BD70B58901002814DA0F23C0B2E1
:1005F0000340083B114A9B089B009B1803221040B4
:100600009040FC321500114085408140DC69AC43CC
:100610002143D96170BD032583082840A840FC35DB
:100620002E00074A9B009B18C0228640294081402B
:1006300092009C58B44321439950EBE700ED00E051
:1006400000E100E0094A431E012093420DD8C02179
:10065000074A08485360036A09061B021B0A0B433A
:10066000036200200723906013607047FFFFFF00C4
:1006700010E000E000ED00E0F0B50B6887B00293F9
:1006800000230191029ADA4001D107B0F0BD0122A6
:100690009A4003920399029A0A40009200D18CE09A
:1006A000019A1021526816008E43022E0ED10725A2
:1006B0001D40AD000139A940DC08A4000419276AD7
:1006C0008F4301990969A9400F43276203245F0002
:1006D000BC40E4430568013E2540AC460325154077
:1006E000BD4061460D430560012E0FD80199866813
:1006F000CD682640BD40354385604668039915099D
:100700008E4301210D409D4035434560C5680199E8
:100710002C408D688021BD4049052C43C4600A42AD
:100720004BD00121264C0326A5691E400D43A5612F
:10073000A4699D080C400594059C0F242149AD0037
:10074000B6006D18B4409021AF68C905A7430024D6
:1007500088420CD01C490134884208D01B4901341E
:10076000884204D01A490334884200D1023CB44084
:1007700000993C430E00AC60164CCD4327683E43C5
:10078000D10301D43E002E4026606768009E3E43A0
:10079000910301D43E002E406660A768009E3E4350
:1007A000D10201D43E002E40A660E668009F374388
:1007B000920201D42E403700E760013362E7C04661
:1007C00000100240000001400004004800080048FA
:1007D000000C004800040140002A01D081617047EC
:1007E0008162FCE7F0B5036885B00500DB072FD414
:1007F0002B689B0700D581E02B681B0700D5BCE068
:100800002B685B0700D5DFE02B68DB061AD56A6929
:10081000B54C0423012A00D04BE1616B02260B4347
:100820006363636B1A436263FFF7C6FE0700636B83
:10083000334200D136E1F821626BAB698A43DB00B9
:1008400013436363296A002900D059E1002013E0B3
:100850000C21A54C62680A40042A06D063680B404C
:10086000082B0BD16368DB0308D523689B03BFD536
:100870006B68002BBCD1012005B0F0BD6B68012B6B
:1008800013D1802322685B0213432360FFF794FE99
:1008900080260700B60223683342A9D1FFF78CFEF9
:1008A000C01B6428F7D90320E6E7002B16D1236884
:1008B0008E4A80261340236023688D4AB602134077
:1008C0002360FFF779FE07002368334200D18FE7EA
:1008D000FFF772FEC01B6428F6D9E4E7052B05D1AB
:1008E00080232268DB0213432360CAE723687F4A20
:1008F0001340236023687E4A1340C6E70C227A4CDB
:100900006368134206D063681340082B10D16368F4
:10091000DB030DD423689B0702D5EB68012BAAD11A
:10092000F82122682B698A43DB001343236063E7C5
:10093000EA680123002A0FD02268022613432360AD
:10094000FFF73AFE070023683342E9D1FFF734FE90
:10095000C01B0228F7D9A6E7226802269A43226024
:10096000FFF72AFE07002368334200D144E7FFF770
:1009700023FEC01B0228F6D995E7EA6901235A4CE9
:10098000002A10D0626A022613436362FFF714FE46
:100990000700636A334200D032E7FFF70DFEC01B49
:1009A0000228F6D97FE7626A02269A436262FFF75D
:1009B00003FE0700636A334200D121E7FFF7FCFD25
:1009C000C01B0228F6D96EE780220021464C520552
:1009D000E3690091134208D1E3691343E361E369DA
:1009E00013400393039B012300938027414E7F0014
:1009F00033683B4206D0AB68012B13D1226A134304
:100A0000236230E033683B433360FFF7D5FD01904C
:100A100033683B42EFD1FFF7CFFD019BC01A64283A
:100A2000F6D940E70122002B14D1236A0227934311
:100A30002362236A033293432362FFF7BDFD06005E
:100A4000236A3B4225D0FFF7B7FD2B4B801B984212
:100A5000F6D928E7052B0BD1216A013B0B43236212
:100A6000236A1A432262FFF7A7FD022706000DE062
:100A7000236A934304222362236A9343C0E7FFF768
:100A80009BFD1D4B801B984200D90CE7236A3B421B
:100A9000F5D0009B012B00D0B6E6E369174A13405E
:100AA000E361B1E6FFF788FDC01B022800D8BEE66F
:100AB000F9E6053203D1626B9A436263BBE6626B6F
:100AC0000226134301226363636B93436363FFF75F
:100AD00073FD0700636B334200D1B3E6FFF76CFD93
:100AE000C01B0228F6D9DEE600100240FFFFFEFF21
:100AF000FFFFFBFF0070004088130000FFFFFFEFC7
:100B00000C22264C012063681340082B00D1B3E669
:100B10002368234A1340236002292FD1FFF74CFD9D
:100B200080260700B6042368334221D10F22E36AEE
:100B30009343EA6A1343E362696AAB6A62680B43F0
:100B4000184980250A4013436360802322685B04B0
:100B500013432360FFF730FD0600AD0423682B42EA
:100B600000D073E6FFF728FD801B0228F6D99AE62D
:100B7000FFF722FDC01B0228D5D994E6FFF71CFD24
:100B800080250600AD0423682B4200D15EE6FFF706
:100B900013FD801B0228F6D985E6C04600100240EE
:100BA000FFFFFFFEFFFFC2FF70B5144C88B010229C
:100BB0002100684600F0D6FA210004AD1022103161
:100BC000280000F0CFFA0C220D4E73681A40082A54
:100BD00011D10F206A46990C0140545CF26A024020
:100BE000A95CDB0305D50748FFF7A2FA604308B00C
:100BF00070BD0548FAE70348F9E7C046042000083D
:100C00000010024000127A0000093D00F7B50122F1
:100C1000434C060023680F0013408B421CD33268FC
:100C2000930723D4D30729D4012322681A4097427B
:100C300067D333683B4C5B076AD4FFF7B5FF636843
:100C4000394A1B061B0FD35CD840384B1860002074
:100C5000FFF788FC002008E0236893430B432360E0
:100C6000236813409942DAD00120FEBDF0202D49BF
:100C70004B688343B06803434B60D3E7294D7268E8
:100C80002B68012A1AD19B03EED503216B688B4395
:100C900013436B60FFF790FC73680190012B15D133
:100CA0000C226B681340042BBED0FFF785FC019B20
:100CB000C01A1F4B9842F3D90320D6E7022A02D16B
:100CC0009B01E2D4D0E79B07DFD4CDE7022B12D003
:100CD0000C226B681342A7D0FFF76EFC019BC01A71
:100CE000134B9842F4D9E7E7FFF766FC019BC01A63
:100CF0000F4B9842E0D80C226B681340082BF3D1BD
:100D000092E722689A43226022681A42ACD190E7A7
:100D10006368084A1340F268134363608DE7C04676
:100D20000020024000100240362000080000002091
:100D300088130000FFF8FFFF014B18687047C0469A
:100D400000000020044B054A5B685B055B0FD35C29
:100D5000034A1068D840704700100240462000083F
:100D60000000002070B504000568C269836800694E
:100D70002968034360693F4E03433F4813430140E2
:100D80000B432B606B683D49206A0B40E1680B43C5
:100D90006B60A369A9680343394801400B43AB600A
:100DA00080231B02B54210D103203649096B014054
:100DB0003548405C9A4213D0082858D8FFF7AEF95E
:100DC000375742574B575757500030498D424CD1F7
:100DD0009A422CD1FFF7B6FF636840005B080BE036
:100DE000082821D8FFF790F9F620052018202020A8
:100DF0001B0063685808264BC0186168FFF798F914
:100E000083B200200F22190091430A001B072168BA
:100E10005B0F1343CB6070BDFFF7C6FEDCE7636872
:100E2000580880235B02E7E701200023EAE7FFF789
:100E300089FF61684B081818FFF77AF980B2E860FB
:100E40000020E8E76168134B4808C018FFF770F905
:100E500080B2F060F4E7FFF7A7FE61684B08F4E7A3
:100E6000802361681B024808EFE79A42DCD001202A
:100E7000D1E7C04600380140F369FFFFFFCFFFFF15
:100E8000FFF4FFFF001002404E2000080044004025
:100E90000024F40000127A00436A30B5DA0706D560
:100EA0000168284C4A682240846A22434A609A07B3
:100EB00006D50168244C4A682240C46A22434A602D
:100EC0005A0706D50168214C4A682240046B224328
:100ED0004A601A0706D501681D4C4A682240446BD7
:100EE00022434A60DA0606D501681A4C8A68224015
:100EF000846B22438A609A0606D50168164C8A687C
:100F00002240C46B22438A605A0610D50168134DF3
:100F10004A68046C2A4022434A6080225203944269
:100F200005D14A680E4C2240446C22434A601B069D
:100F300006D502680B4953680B40816C0B43536024
:100F400030BDC046FFFFFDFFFFFFFEFFFFFFFBFFC1
:100F5000FF7FFFFFFFEFFFFFFFDFFFFFFFFFEFFF61
:100F6000FFFF9FFFFFFFF7FF70B5041E01D10120B7
:100F700070BD050069352B78DBB2002B04D102006F
:100F800068321370FFF788FA2423012122682B703E
:100F9000136820008B431360FFF7E4FE0128E6D0BE
:100FA000636A002B02D02000FFF776FF23680B490D
:100FB0005A6800200A4008215A609A688A439A6059
:100FC000012219680A431A6022002023E0666A326F
:100FD00068342B7013702070CAE7C046FFF7FFFF1C
:100FE000F8B504000E0015001F002268D3693340D5
:100FF0009B1B59424B41AB4201D0002018E0069B9D
:101000000133F3D0069B002B13D123680C491A68D7
:1010100003200A401A609A68A331FF318A439A601C
:101020002200202369321370537000236834237028
:10103000F8BDFFF7C1FA069BC01B8342D5D2E4E797
:101040005FFEFFFFF0B5070085B0039369373B787B
:1010500004000D0016000220202B46D10138002983
:1010600043D0002A41D08023A2685B019A4204D178
:101070002369002B01D1014237D1230068331A784C
:101080000220012A31D001221A700023E3662133A5
:101090003B70FFF791FA230050331E805E8080265C
:1010A00002907601210052310A8892B2002A0DD1B5
:1010B000039B402100932000029BFFF791FF002833
:1010C00012D1202368343B7020700EE00B88002280
:1010D000013B9BB20B80039B802100932000029B6D
:1010E000FFF77EFF002802D0032005B0F0BDA36803
:1010F0002268B34208D12369002B05D12B88023521
:10110000DB05DB0D1385CDE72B7801351385C9E7AA
:10111000014B18687047C0460400002070B50026D7
:101120000C4D0D4C641BA410A64209D1002600F002
:101130005DFF0A4D0A4C641BA410A64205D170BD88
:10114000B300EB5898470136EEE7B300EB589847E9
:101150000136F2E7EC200008EC200008EC20000843
:10116000F0200008002310B59A4200D110BDCC5CDD
:10117000C4540133F8E703008218934200D170474A
:1011800019700133F9E700000FB40B4B13B51C685D
:10119000002C05D0A369002B02D1200000F050F8EC
:1011A00005AB049AA1682000019300F065F916BC14
:1011B00008BC04B01847C0460400002010B502491E
:1011C00000F0B2F810BDC046751D0008002310B530
:1011D000040003604360836081814366C2810361D0
:1011E00043618361190008225C30FFF7C4FF054B9F
:1011F00024626362044BA362044BE362044B2363E7
:1012000010BDC046E51900080D1A0008451A00086F
:10121000711A000870B568254A1E55430E00290052
:10122000743100F0A3F8041E08D000212A000160E8
:1012300046600C30A0606832FFF79DFF200070BD53
:10124000836913B50400002B28D18364C36403654C
:10125000134B144A1B6882620193984201D1012307
:101260008361200000F020F86060200000F01CF88E
:10127000A060200000F018F80022E06004216068FF
:10128000FFF7A4FF01220921A068FFF79FFF0222B8
:101290001221E068FFF79AFF0123A36113BDC04646
:1012A00054200008BD110008F8B51E4B07001E6849
:1012B000B369002B02D13000FFF7C2FF4836B46893
:1012C0007368013B04D53368002B07D03668F6E716
:1012D0000C22A55E002D0DD06834F2E70421380001
:1012E000FFF798FF30600028F0D10C2304003B602A
:1012F0002000F8BD012320005B42E3810233A3817B
:1013000065662560A560656025616561A561082247
:1013100029005C30FFF72FFF6563A563A564E564D2
:10132000E6E7C04654200008F7B504000700002691
:1013300001914834002C01D13000FEBD6368A568DE
:101340000093009B013B009301D52468F2E7AB8931
:10135000012B08D90E22AB5E013304D029003800DE
:10136000019B984706436835EBE70000032370B5FF
:10137000CD1C9D43083506000C2D1ED20C25A9421C
:101380001DD8300000F0ADFD254A14682100002969
:1013900019D1244C2368002B03D1300000F010FB3E
:1013A00020602900300000F00BFB431C2CD10C23E3
:1013B0003000336000F096FD03E0002DDFDA0C23EF
:1013C0003360002070BD0B685B1B1AD40B2B03D954
:1013D0000B60CC18256003E08C420ED1636813606B
:1013E000300000F07FFD200007220B30231D9043CA
:1013F000C31AE7D05A42E250E4E74B6863600C003E
:10140000EEE70C004968C2E70323C41C9C43A042DA
:10141000E0D0211A300000F0D3FA431CDAD1C6E73D
:10142000880000208C000020936810B5013B936079
:10143000002B05DA9469A34208DBCBB20A2B05D056
:101440001368581C10601970C8B210BD00F016FB6C
:10145000FBE7F8B506000F001400D518AC4201D127
:10146000002007E021783A003000FFF7DDFF01346B
:10147000431CF3D1F8BD0000F0B59FB006000F008B
:1014800014000593002804D08369002B01D1FFF7D5
:10149000D7FE7F4B9F425CD17768BB891B0762D523
:1014A0003B69002B5FD0002306AD6B6120336B7668
:1014B0001033AB760294029C2378002B5DD1029B03
:1014C000E31A04930DD0049B029A39003000FFF711
:1014D000C0FF431C00D1CCE06A69049B944663447E
:1014E0006B612378002B00D1C3E00122002352421C
:1014F0006A6002A95432521801342B60EB60AB6071
:101500001370AB6521780522624800F0DFFC631C94
:101510009C46002835D12968CB0604D5532302AA5E
:1015200020309B1818700B0704D553232B2002AAD8
:101530009B18187023782A2B2CD000200A21099B95
:101540002278303A092A00D86BE000282AD0099383
:1015500028E0514B9F4201D1B7689EE74F4B9F4215
:101560009BD1F76899E73900300000F0F1FA0028C4
:1015700099D0012040421FB0F0BD252B9FD00134EF
:101580009AE7444B2968C01A012383400B432B6020
:101590006446B7E7059B181D1B680590002B3ADBD6
:1015A0000993644623782E2B0BD16378621C2A2B77
:1015B0003FD1059B02341A1D1B680592002B35DBB9
:1015C000079321780322364800F080FC002807D0DA
:1015D000334B2A68C01A4023834013432B600134E5
:1015E0002178631C06222F480293297600F06EFCB6
:1015F000002844D02C4B002B2FD12968059B0722B3
:10160000C90528D59B189343083305936B69039A42
:101610009B186B614FE75B42EB6002230B432B602F
:10162000BFE74B4301349B18012089E701235B424C
:10163000C6E7002314000A201A006B6021783039B5
:10164000092903D9002BBCD00792BAE742430134E1
:1016500052180123F2E70733D5E705AB00933A00B0
:10166000124B2900300000E000BF0390039B0133C0
:10167000CCD1BB895B0600D57BE70B987BE705AB3C
:1016800000933A00094B2900300000F07FF8ECE7A6
:1016900078200008B820000898200008582000088A
:1016A000BE200008C22000080000000053140008FB
:1016B000F7B5150001938A680B6900900C009342FE
:1016C00000DA130022002B6043321278002A01D086
:1016D00001332B6023689B0602D52B6802332B60F5
:1016E000062723681F4027D0230043331B785A1E48
:1016F00093412268920630D4220001994332009827
:10170000089EB047431C25D0062320682A68E1685C
:1017100003400025042B03D18D1AEB43DB171D403A
:10172000A3682269934201DD9B1AED180027BD4290
:1017300020D1002010E00137E3682A689B1A9F42FD
:10174000D2DA22000123193201990098089EB0478D
:10175000431CF0D101204042FEBD3020E11843314E
:10176000087021005A1C45310978A218433202330F
:101770001170C1E7220001231A3201990098089ED6
:10178000B047431CE6D00137D1E70000F0B58BB07D
:1017900006920A0043320793059004920A7E0C00D9
:1017A000109B6E2A00D18FE017D8632A2CD008D85E
:1017B000002A00D199E0582A54D0260042363270CF
:1017C00029E0642A01D0692AF7D121681A6808063D
:1017D00023D5111D1960156825E0732A00D188E012
:1017E00008D86F2A29D0702AE7D1202209680A4335
:1017F000226003E0752A20D0782ADED122007821E9
:10180000453211706C4A30E00E001A684236111DE4
:10181000196013683370012379E04906D9D5111D89
:1018200019600023D55E002D03DA2D23049A6D4242
:101830001370624B0A2703932FE02068196805068E
:1018400003D5081D18600D6805E04006F9D50D6840
:10185000081D1860ADB2594B082703936F2A18D0A2
:101860000A2716E045310A70544A03921A68216823
:10187000101D18601568080622D5CB0702D5202355
:10188000194321601027002D03D1202322689A4399
:1018900022602300002243331A706368A360002B88
:1018A0005CDB0422216891432160002D58D1049E05
:1018B000002B64D02600039B42361B7833705EE019
:1018C0004806DAD5ADB2D8E709681A68080605D522
:1018D000111D1960136862691A6006E04906F7D5A0
:1018E000111D19601368A28A1A800023049E2361C7
:1018F00054E01A68111D19601668002162683000F2
:1019000000F0E4FA002801D0801B60606368236166
:101910000023049A137041E0236932000699059868
:10192000079DA847431C43D0236800259B070FD47D
:10193000099BE06898423DDA18003BE02200012351
:10194000193206990598079EB047431C30D00135DF
:10195000E368099A9B1A9D42F0DBE9E7002DA9D0C4
:10196000049E28003900FEF769FC039B013E5B5C86
:10197000280033703900FEF7DBFB051EF1D1082F7C
:1019800009D12368DB0706D563682269934202DC2C
:101990003023013E3370049B9B1B2361079B09AAE4
:1019A00000932100069B0598FFF782FE431CB3D1EC
:1019B000012040420BB0F0BDDA200008C920000829
:1019C000002370B5064C050008002360FEF782FC7A
:1019D000431C03D12368002B00D02B6070BDC04690
:1019E0000801002070B50C000E25495F00F0C6FA12
:1019F000002803DB636D1B18636570BDA389024A71
:101A00001340A381F9E7C046FFEFFFFFF8B51F00C1
:101A10008B8905000C001600DB0505D50E23C95E79
:101A20000022022300F0D2F9A389054A28001340BE
:101A3000A38132000E23E15E3B0000F075F8F8BD93
:101A4000FFEFFFFF70B50C000E25495F00F0BEF9F7
:101A5000A389421C03D1054A1340A38170BD802293
:101A600052011343A3816065F8E7C046FFEFFFFF13
:101A700010B50E23C95E00F0E1F810BDF8B5050001
:101A80000E001400002804D08369002B01D1FFF759
:101A9000D7FB224B9C422DD16C68A369A360A3891C
:101AA0001B0731D52369002B2ED023682269F7B29A
:101AB000981A6369F6B2984205DB2100280000F00D
:101AC00059F9002826D1A3680130013BA36023689F
:101AD0005A1C22601F706369984204D0A389DB07F7
:101AE0001AD50A2E18D12100280000F043F9002849
:101AF00012D00FE00A4B9C4201D1AC68CDE7094BF4
:101B00009C42CAD1EC68C8E72100280000F020F808
:101B10000028CAD0012676423000F8BD782000089F
:101B2000982000085820000870B505000800110032
:101B30000022064C22601A00FEF7BDFB431C03D1B5
:101B40002368002B00D02B6070BDC0460801002028
:101B5000364B70B51D6806000C00002D05D0AB6932
:101B6000002B02D12800FFF76BFB314B9C420FD1B9
:101B70006C680C23E25E93B219072DD4D90611D4F8
:101B800009230120336037331343A381404270BDE2
:101B9000284B9C4201D1AC68EBE7274B9C42E8D133
:101BA000EC68E6E75B0713D5616B002908D02300DA
:101BB0004433994202D0300000F096F90023636369
:101BC0002422A3899343A3810023636023692360B4
:101BD0000823A2891343A3812369002B0BD1A021E1
:101BE0008022A389890092000B40934203D02100F8
:101BF000300000F027F90123A289134011D00023FF
:101C0000A36063695B42A361002023698342BED164
:101C10000C23E25E1306BAD540231343A381013897
:101C2000B5E7920700D46369A360EDE704000020E4
:101C3000782000089820000858200008002370B57C
:101C4000064C050008002360FEF75EFB431C03D131
:101C50002368002B00D02B6070BDC0460801002017
:101C6000F7B58A8905000C00130760D44B68002B78
:101C700004DC0B6C002B01DC0020FEBDE76A002FAA
:101C8000FAD000232E682B6080235B011A4034D0E9
:101C9000606DA3895B0706D56368C01A636B002B70
:101CA00001D0236CC01A0200216A00232800E76AD1
:101CB000B847A189431C06D12B681D2B31D82C4A6B
:101CC000DA40D3072DD50023636023692360CB045A
:101CD00005D5431C02D12B68002B00D16065616BD8
:101CE0002E600029C8D023004433994202D0280036
:101CF00000F0FAF800206063BFE70123216A2800A2
:101D0000B847431CC5D12B68002BC2D01D2B01D076
:101D1000162B01D12E60AFE74023A2891343A38184
:101D2000ABE740230B430120A3814042A5E70F69A5
:101D3000002FA1D00B680F60DB1B019300239207DB
:101D400000D14B69A360019B002B00DC94E7019B51
:101D50003A00216A2800A66AB047002803DC402325
:101D6000A2891343DFE7019B3F181B1A0193EAE79F
:101D7000010040200B6970B505000C00002B01D15B
:101D8000002070BD002804D08369002B01D1FFF72B
:101D900057FA0B4B9C4209D16C680C22A35E002BB6
:101DA000EED021002800FFF75BFFEAE7054B9C42DD
:101DB00001D1AC68F1E7044B9C42EED1EC68ECE752
:101DC00078200008982000085820000870B5050009
:101DD000080011000022064C22601A00FEF79EFA4D
:101DE000431C03D12368002B00D02B6070BDC0467C
:101DF0000801002070B50E001D000E23C95E90B0D2
:101E00001400002907DA00232B60B3891B0611D4C4
:101E10008023DB000FE001AA00F0C4F80028F2DB09
:101E2000F022029B12021340054A9B185A4253416A
:101E30002B60EDE740230020236010B070BDC0464A
:101E400000E0FFFFF7B502268B8905000C00334246
:101E500006D0230047332360236101236361F7BD6C
:101E600001AB6A46FFF7C6FF009907002800FFF79D
:101E70007DFA002808D10C22A35E9A05EFD4032234
:101E800093431E43A681E4E70F4BAB628023A289F4
:101E900020601343A381009B20616361019B002BA1
:101EA0000DD00E23E15E280000F08EF8002806D049
:101EB0000322A38993431A0001231343A381A0891A
:101EC0003843A081CBE7C046BD110008C9B28218D3
:101ED000904201D10020704703788B42FBD0013043
:101EE000F6E770477047000070B50500002910D074
:101EF0000C1F2368002B00DAE4182800FFF7F1FF1D
:101F00001D4A1368002B05D1636014602800FFF799
:101F1000E9FF70BDA34209D9216860188342F3D15B
:101F200018685B6841182160EEE713005A68002AC0
:101F300001D0A242F9D919685818A0420BD12068E3
:101F40000918581819608242E0D110685268411887
:101F500019605A60DAE7A04202D90C232B60D5E75A
:101F600021686018824203D11068526841182160CC
:101F700062605C60CAE7C0468800002070B505005A
:101F8000080011000022064C22601A00FEF785F9B5
:101F9000431C03D12368002B00D02B6070BDC046CA
:101FA00008010020002370B5064C05000800110050
:101FB0002360FEF7ACF9431C03D12368002B00D04B
:101FC0002B6070BD08010020002370B5064C050091
:101FD00008002360FEF7A0F9431C03D12368002BFF
:101FE00000D02B6070BDC04608010020F8B5C04687
:101FF000F8BC08BC9E467047F8B5C046F8BC08BCA3
:042000009E46704741
:1020040002030405060708090A0B0C0D0E0F101035
:102014000102030405060708090A0B0C0D0E0F1034
:1020240048656C6C6F207072696E74662025640A52
:102034000D00000000000000000001020304060778
:102044000809000000000102030400040802000063
:102054000800002000000000000000000000000054
:10206400000000000000000000000000000000006C
:10207400000000000000000000000000000000005C
:10208400000000000000000000000000000000004C
:10209400000000000000000000000000000000003C
:1020A400000000000000000000000000000000002C
:1020B40000000000232D302B2000686C4C00656666
:1020C4006745464700303132333435363738394185
:1020D400424344454600303132333435363738399B
:0820E40061626364656600009F
:0420EC00E9000008FF
:0420F000C100000823
:1020F40000127A0008000020000000007820000888
:10210400982000085820000800000000000000008B
:1021140000000000000000000000000000000000BB
:1021240000000000000000000000000000000000AB
:10213400000000000000000000000000000000009B
:10214400000000000000000000000000000000008B
:08215400000000000000000083
:0400000508000249A4
:00000001FF
